{
  "_format": "hh-sol-artifact-1",
  "contractName": "CertificateIssuer",
  "sourceName": "contracts/CertificateIssuer.sol",
  "abi": [
    {
      "inputs": [],
      "stateMutability": "nonpayable",
      "type": "constructor"
    },
    {
      "inputs": [
        {
          "internalType": "int256",
          "name": "RA",
          "type": "int256"
        }
      ],
      "name": "getCertificatesByRA",
      "outputs": [
        {
          "components": [
            {
              "internalType": "int256",
              "name": "RA",
              "type": "int256"
            },
            {
              "internalType": "int256",
              "name": "hoursDone",
              "type": "int256"
            },
            {
              "internalType": "string",
              "name": "name",
              "type": "string"
            },
            {
              "internalType": "string",
              "name": "link",
              "type": "string"
            },
            {
              "internalType": "uint256",
              "name": "issueDate",
              "type": "uint256"
            }
          ],
          "internalType": "struct CertificateIssuer.Certificate[]",
          "name": "",
          "type": "tuple[]"
        }
      ],
      "stateMutability": "view",
      "type": "function"
    },
    {
      "inputs": [
        {
          "components": [
            {
              "internalType": "int256",
              "name": "RA",
              "type": "int256"
            },
            {
              "internalType": "int256",
              "name": "hoursDone",
              "type": "int256"
            },
            {
              "internalType": "string",
              "name": "name",
              "type": "string"
            },
            {
              "internalType": "string",
              "name": "link",
              "type": "string"
            }
          ],
          "internalType": "struct CertificateIssuer.CertificateInput",
          "name": "newCertificate",
          "type": "tuple"
        }
      ],
      "name": "issueNewCertificate",
      "outputs": [],
      "stateMutability": "nonpayable",
      "type": "function"
    },
    {
      "inputs": [],
      "name": "owner",
      "outputs": [
        {
          "internalType": "address",
          "name": "",
          "type": "address"
        }
      ],
      "stateMutability": "view",
      "type": "function"
    }
  ],
  "bytecode": "0x60806040523480156200001157600080fd5b506200005d6040518060400160405280601781526020017f496e696369616c697a616e646f20636f6e747261746f2e000000000000000000815250620000ef60201b620004921760201c565b336000806101000a81548173ffffffffffffffffffffffffffffffffffffffff021916908373ffffffffffffffffffffffffffffffffffffffff160217905550620000e96040518060400160405280601481526020017f446f6e6f20646f20636f6e747261746f3a202573000000000000000000000000815250336200019260201b6200052b1760201c565b620003a2565b6200018f81604051602401620001069190620002b3565b6040516020818303038152906040527f41304fac000000000000000000000000000000000000000000000000000000007bffffffffffffffffffffffffffffffffffffffffffffffffffffffff19166020820180517bffffffffffffffffffffffffffffffffffffffffffffffffffffffff83818316178352505050506200023860201b60201c565b50565b620002348282604051602401620001ab929190620002d7565b6040516020818303038152906040527f319af333000000000000000000000000000000000000000000000000000000007bffffffffffffffffffffffffffffffffffffffffffffffffffffffff19166020820180517bffffffffffffffffffffffffffffffffffffffffffffffffffffffff83818316178352505050506200023860201b60201c565b5050565b60008151905060006a636f6e736f6c652e6c6f679050602083016000808483855afa5050505050565b6200026c8162000327565b82525050565b60006200027f826200030b565b6200028b818562000316565b93506200029d8185602086016200035b565b620002a88162000391565b840191505092915050565b60006020820190508181036000830152620002cf818462000272565b905092915050565b60006040820190508181036000830152620002f3818562000272565b905062000304602083018462000261565b9392505050565b600081519050919050565b600082825260208201905092915050565b600062000334826200033b565b9050919050565b600073ffffffffffffffffffffffffffffffffffffffff82169050919050565b60005b838110156200037b5780820151818401526020810190506200035e565b838111156200038b576000848401525b50505050565b6000601f19601f8301169050919050565b610bdc80620003b26000396000f3fe608060405234801561001057600080fd5b50600436106100415760003560e01c806313626102146100465780638da5cb5b14610062578063acabe65914610080575b600080fd5b610060600480360381019061005b91906106ec565b6100b0565b005b61006a6102ba565b6040516100779190610938565b60405180910390f35b61009a600480360381019061009591906106c3565b6102de565b6040516100a79190610953565b60405180910390f35b60008054906101000a900473ffffffffffffffffffffffffffffffffffffffff1673ffffffffffffffffffffffffffffffffffffffff163373ffffffffffffffffffffffffffffffffffffffff161461013e576040517f08c379a0000000000000000000000000000000000000000000000000000000008152600401610135906109c7565b60405180910390fd5b60008160000135905060006040518060a00160405280846000013581526020018460200135815260200184806040019061017891906109e7565b8080601f016020809104026020016040519081016040528093929190818152602001838380828437600081840152601f19601f8201169050808301925050505050505081526020018480606001906101d091906109e7565b8080601f016020809104026020016040519081016040528093929190818152602001838380828437600081840152601f19601f820116905080830192505050505050508152602001428152509050600260008381526020019081526020016000208190806001815401808255809150506001900390600052602060002090600502016000909190919091506000820151816000015560208201518160010155604082015181600201908051906020019061028b9291906105f0565b5060608201518160030190805190602001906102a89291906105f0565b50608082015181600401555050505050565b60008054906101000a900473ffffffffffffffffffffffffffffffffffffffff1681565b606060026000838152602001908152602001600020805480602002602001604051908101604052809291908181526020016000905b8282101561048757838290600052602060002090600502016040518060a0016040529081600082015481526020016001820154815260200160028201805461035a90610b1d565b80601f016020809104026020016040519081016040528092919081815260200182805461038690610b1d565b80156103d35780601f106103a8576101008083540402835291602001916103d3565b820191906000526020600020905b8154815290600101906020018083116103b657829003601f168201915b505050505081526020016003820180546103ec90610b1d565b80601f016020809104026020016040519081016040528092919081815260200182805461041890610b1d565b80156104655780601f1061043a57610100808354040283529160200191610465565b820191906000526020600020905b81548152906001019060200180831161044857829003601f168201915b5050505050815260200160048201548152505081526020019060010190610313565b505050509050919050565b610528816040516024016104a69190610975565b6040516020818303038152906040527f41304fac000000000000000000000000000000000000000000000000000000007bffffffffffffffffffffffffffffffffffffffffffffffffffffffff19166020820180517bffffffffffffffffffffffffffffffffffffffffffffffffffffffff83818316178352505050506105c7565b50565b6105c38282604051602401610541929190610997565b6040516020818303038152906040527f319af333000000000000000000000000000000000000000000000000000000007bffffffffffffffffffffffffffffffffffffffffffffffffffffffff19166020820180517bffffffffffffffffffffffffffffffffffffffffffffffffffffffff83818316178352505050506105c7565b5050565b60008151905060006a636f6e736f6c652e6c6f679050602083016000808483855afa5050505050565b8280546105fc90610b1d565b90600052602060002090601f01602090048101928261061e5760008555610665565b82601f1061063757805160ff1916838001178555610665565b82800160010185558215610665579182015b82811115610664578251825591602001919060010190610649565b5b5090506106729190610676565b5090565b5b8082111561068f576000816000905550600101610677565b5090565b6000813590506106a281610b8f565b92915050565b6000608082840312156106ba57600080fd5b81905092915050565b6000602082840312156106d557600080fd5b60006106e384828501610693565b91505092915050565b6000602082840312156106fe57600080fd5b600082013567ffffffffffffffff81111561071857600080fd5b610724848285016106a8565b91505092915050565b600061073983836108ac565b905092915050565b61074a81610aa4565b82525050565b600061075b82610a4e565b6107658185610a71565b93508360208202850161077785610a3e565b8060005b858110156107b35784840389528151610794858261072d565b945061079f83610a64565b925060208a0199505060018101905061077b565b50829750879550505050505092915050565b6107ce81610ab6565b82525050565b60006107df82610a59565b6107e98185610a82565b93506107f9818560208601610aea565b61080281610b7e565b840191505092915050565b600061081882610a59565b6108228185610a93565b9350610832818560208601610aea565b61083b81610b7e565b840191505092915050565b6000610853603783610a93565b91507f536f6d656e7465206f20646f6e6f20646f20636f6e747261746f20706f64652060008301527f7265616c697a61722065737365206f7065726163616f2e0000000000000000006020830152604082019050919050565b600060a0830160008301516108c460008601826107c5565b5060208301516108d760208601826107c5565b50604083015184820360408601526108ef82826107d4565b9150506060830151848203606086015261090982826107d4565b915050608083015161091e6080860182610929565b508091505092915050565b61093281610ae0565b82525050565b600060208201905061094d6000830184610741565b92915050565b6000602082019050818103600083015261096d8184610750565b905092915050565b6000602082019050818103600083015261098f818461080d565b905092915050565b600060408201905081810360008301526109b1818561080d565b90506109c06020830184610741565b9392505050565b600060208201905081810360008301526109e081610846565b9050919050565b60008083356001602003843603038112610a0057600080fd5b80840192508235915067ffffffffffffffff821115610a1e57600080fd5b602083019250600182023603831315610a3657600080fd5b509250929050565b6000819050602082019050919050565b600081519050919050565b600081519050919050565b6000602082019050919050565b600082825260208201905092915050565b600082825260208201905092915050565b600082825260208201905092915050565b6000610aaf82610ac0565b9050919050565b6000819050919050565b600073ffffffffffffffffffffffffffffffffffffffff82169050919050565b6000819050919050565b60005b83811015610b08578082015181840152602081019050610aed565b83811115610b17576000848401525b50505050565b60006002820490506001821680610b3557607f821691505b60208210811415610b4957610b48610b4f565b5b50919050565b7f4e487b7100000000000000000000000000000000000000000000000000000000600052602260045260246000fd5b6000601f19601f8301169050919050565b610b9881610ab6565b8114610ba357600080fd5b5056fea26469706673582212207b216badc0f49fc7afb27186a412a0e483b3c3f4578b52511c837852ce38a23964736f6c63430008000033",
  "linkReferences": {},
  "deployedLinkReferences": {}
}